:020000040800F2
:1000000080C3002081030008596A0008094D0008D8
:1000100051680008B51A0008C586000800000000F5
:10002000000000000000000000000000C102000805
:10003000D5260008000000001D030008DD77000839
:100040009B030008BD6E00089B0300089B0300088B
:100050009B0300089B03000821280008592800087A
:100060009B0300089B03000873280008D52500089F
:10007000E52500089B0300089B0300089B0300087C
:100080009B0300089B0300089B0300089B030008D8
:100090009B0300089B0300089B0300088D280008B1
:1000A0009B030008617900089B0300089B0300087C
:1000B000A5790008ED790008317A00089B03000853
:1000C0009B0300089B0300089B0300089B03000898
:1000D0009B0300089B0300089B030008458500085C
:1000E0003B2800089B0300089B0300089B030008B3
:1000F0009B0300089B0300089B0300089B03000868
:100100009B0300089B0300089B0300089B03000857
:100110009B0300089B030008417A00089B0300082A
:100120009B0300089B0300089B0300089B03000837
:100130009B0300089B0300089B0300089B03000827
:100140009B0300089B0300089B03000800000000BD
:10015000000000000000000000000000000000009F
:100160000000000000000000000000009B030008E9
:100170009B0300089B0300089B0300089B030008E7
:100180009B0300089B0300089B0300089B030008D7
:100190009B030008000000009B0300089B0300086D
:1001A0009B0300089B0300089B0300089B030008B7
:1001B0009B0300089B0300089B0300089B030008A7
:1001C0009B0300089B0300089B0300089B03000897
:1001D0009B0300089B03000800F002F800F061F8A0
:1001E0000AA090E8000C82448344AAF10107DA4592
:1001F00001D100F056F8AFF2090EBAE80F0013F083
:10020000010F18BFFB1A43F001031847C8D00000C4
:10021000E8D000000A444FF0000C10F8013B13F046
:10022000070408BF10F8014B1D1108BF10F8015B4F
:10023000641E05D010F8016B641E01F8016BF9D142
:1002400013F0080F1EBF10F8014BAD1C0C1B09D199
:100250006D1E58BF01F801CBFAD505E014F8016B0B
:1002600001F8016B6D1EF9D59142D6D3704700009D
:100270000023002400250026103A28BF78C1FBD8AF
:10028000520728BF30C148BF0B607047642900F097
:100290005181002070471FB50CF051FD1FBD10B5F6
:1002A00010BD00F0DDFB1146FFF7F5FF09F00EFA77
:1002B00000F0FBFB03B4FFF7F2FF03BC00F0FEFB12
:1002C0002C4B19680868B0E8F04F80F30988BFF339
:1002D0006F8F4FF0000080F311887047000000001E
:1002E00008480068006880F308884FF0000080F339
:1002F000148862B661B6BFF34F8FBFF36F8F00DF14
:1003000000BF00BF08ED00E0DFF80C00016841F419
:1003100070010160704700BF88ED00E0EFF30980D5
:10032000BFF36F8F134B1A681EF0100F08BF20ED3C
:10033000108A20E9F04F106009B44FF0500080F3AC
:100340001188BFF34F8FBFF36F8F0AF023FE4FF07A
:10035000000080F3118809BC19680868B0E8F04F04
:100360001EF0100F08BFB0EC108A80F30988BFF3AD
:100370006F8F704780010020EFF305807047000009
:100380000948804709480047FEE7FEE7FEE7FEE729
:10039000FEE7FEE7FEE7FEE7FEE7FEE70448054965
:1003A000054A064B704700004D790008D901000846
:1003B00080BD002080C3002080BF002080BF0020BF
:1003C00053EA020C00F069802DE9F04B4FF0000673
:1003D000002B1FBFB3FA83F503FA05F424FA05F6E0
:1003E0005E4012BF1643B2FA82F502FA05F4C5F177
:1003F00020051EBF22FA05FC44EA0C04203556EA0B
:10040000044C4FEA144418BF641C4FF000084FF02E
:100410000009904271EB030C39D3002919BFB1FADE
:1004200081F701FA07F6B0FA80F700FA07F6C7F18C
:1004300020071EBF20FA07FC46EA0C062037B6FB51
:10044000F4FCA7EB0507103F07F01F0BCBF12006CC
:100450000CFA0BFB2CFA06F644BFB3460026202FFD
:10046000A4BF5E464FF0000B5BEA060C08BF4FF0DE
:10047000010B19EB0B09ABFB027C48EB0608C01B18
:1004800006FB02CC0BFB03CC71EB0C01C1E70B4666
:10049000024641464846BDE8F08B13B54FF00000D8
:1004A0004FF00001AFF30080BDE81C407047000032
:1004B0000FB41CB50C0007AA009001D02044401EC8
:1004C000074B7B4469460190069800F06EFA002CB9
:1004D00003D06946002000F07BFA1CBC5DF814FBD9
:1004E0001505000070B5044685690068C10601D590
:1004F000302600E02026C00707D070BDD4E90121D6
:1005000030469047206A401C20626D1EF6D570BDB3
:1005100070B5044685690078C00707D170BDD4E97D
:10052000012120209047206A401C20626D1EF6D5D4
:1005300070BD00002DE9F0410646002410687529C1
:10054000314616A510D0AFF30080002802DA4042F1
:1005500013A507E031688A0701D512A502E0490713
:1005600004D511A5012401E0AFF3008000210A2287
:1005700006F1240709E0B0FBF2FCB0FBF2F302FB4A
:100580001C00303078541846491C0028F3D123460B
:100590002A463046BDE8F04100F0A8B9000000004E
:1005A0002D0000002B000000200000002DE9F05F6E
:1005B000894604464FF0000ADFF824B1FB44C0F836
:1005C00020A02046E168884700287DD0252806D055
:1005D000D4E901219047206A401C2062F1E7002500
:1005E0005F462046E16888472028064607DB312E13
:1005F00005D2B81910F8200C08B10543F1E7A80797
:1006000001D525F00405C4F81CA00027C4F818A0E3
:100610002A2E09D0304608F007FF38B304EB8708CC
:10062000303EC8F8186019E059F8041B204604EB66
:1006300087029161E1688847012F064618D1E06979
:10064000002820DA25F020051DE0D8F8180000EB7E
:10065000800006EB40003038C8F818002046E168FA
:100660008847064608F0E0FE0028EED1012F0AD0A8
:100670002E2E08D12046E16888477F1C0646022FAF
:1006800045F02005C4DBA069002803DA404245F0AC
:100690000105A061E80701D025F01005A6B1A6F17B
:1006A0004100192802D8203645F400654A463146F3
:1006B000204625604D46FFF7E9FD60B1012807D0CF
:1006C000ED1D25F0070000E007E000F1080978E7DC
:1006D00005F1040975E730467AE7206ABDE8F09F26
:1006E000A8CB000010B5431C02E010F8011B71B14B
:1006F0008107FAD14FF0013202C88C1A8C4314EAF8
:10070000C211F9D0C01A0A0603D0C01E10BDC01A0B
:1007100010BD0A0401D0801E10BD0902FCD0401E8D
:1007200010BD032A40F2308010F0030C00F0158059
:1007300011F8013BBCF1020F624498BF11F801CBE4
:1007400000F8013B38BF11F8013BA2F1040298BF49
:1007500000F801CB38BF00F8013B11F0030300F0B3
:100760004481083AC0F0088051F8043B083A51F837
:1007700004CBA0E80810F5E7121D5CBF51F8043B5C
:1007800040F8043BAFF30080D20724BF11F8013BCF
:1007900011F801CB48BF11F8012B24BF00F8013B31
:1007A00000F801CB48BF00F8012B704702F0FF03AF
:1007B00043EA032242EA024200F002B84FF000028C
:1007C0000429C0F0128010F0030C00F01B80CCF163
:1007D000040CBCF1020F18BF00F8012BA8BF20F8D1
:1007E000022BA1EB0C0100F00DB85FEAC17C24BF25
:1007F00000F8012B00F8012B48BF00F8012B7047CF
:100800004FF0000200B5134694469646203922BFA9
:10081000A0E80C50A0E80C50B1F12001BFF4F7AFF4
:10082000090728BFA0E80C5048BF0CC05DF804EBD6
:10083000890028BF40F8042B08BF704748BF20F844
:10084000022B11F0804F18BF00F8012B70470000F9
:100850004FF0013C50F8042B51F8043B9A4221D14F
:10086000A2EB0C03934313EACC1317D150F8042BDB
:1008700051F8043B9A4215D1A2EB0C03934313EABF
:10088000CC130BD150F8042B51F8043B9A4209D1F8
:10089000A2EB0C03934313EACC13DBD04FF0000020
:1008A000704700BFD01A01BAB1FA81F101F0180106
:1008B00022FA01F0CB40C1F12001DBB2C0B2C01A74
:1008C0002CFA01F3D11A914311EAC311E6D1704712
:1008D00070477047704710B500F0BAF8006810BD57
:1008E00010B5044600F0B4F8046010BD2DE9F047DF
:1008F0000D4699469246044600F124080168880690
:1009000004D5E06921F01001216000E00120A84237
:1009100001DD471B00E00027A1697A1902EB0900FD
:10092000081AA0612078C00602D42046FFF7DAFD3D
:10093000002608E0D4E901211AF806009047206A51
:10094000401C761C20624E45F4DB2078C0060AD598
:100950002046FFF7C7FD06E0D4E90121302090478B
:10096000206A401C2062381EA7F10107F4DC07E072
:10097000D4E9012118F805009047206A401C206244
:10098000281EA5F10105F3DC2046FFF7C1FD207804
:10099000000602D50220BDE8F0870120FBE7000039
:1009A00001694A1C02610878704700B58FB0CDE933
:1009B00001310021059105497944CDE90310114623
:1009C0006846FFF7F3FD0FB000BD0000E5FFFFFF35
:1009D0000A6802F8010B0A607047D1E900239A42C5
:1009E00002D2531C0B601070704710B5203AC0F053
:1009F0000B80B1E81850203AA0E81850B1E8185020
:100A0000A0E81850BFF4F5AF5FEA027C24BFB1E85C
:100A10001850A0E8185044BF18C918C0BDE81040CD
:100A20005FEA827C24BF51F8043B40F8043B08BFD6
:100A30007047D20728BF31F8023B48BF11F8012B9D
:100A400028BF20F8023B48BF00F8012B7047000088
:100A5000004870471CBD0020004870471CBD0020A6
:100A60007546FFF7F9FFAE4605006946534620F08C
:100A70000700854618B020B5FFF790FCBDE8204080
:100A80004FF000064FF000074FF000084FF0000B4A
:100A900021F00701AC46ACE8C009ACE8C009ACE8FD
:100AA000C009ACE8C0098D46704710B50446AFF3E5
:100AB00000802046BDE81040FFF7FCBB014918202C
:100AC000ABBEFEE726000200704700000748006842
:100AD00040F08070054908600548006840F001005A
:100AE000034908600020486070470000FCED00E00A
:100AF000001000E010B500244FF400714FF090405A
:100B000002F0A6FF08B944F001044FF480714FF0E1
:100B1000904002F09DFF08B944F002044FF40071C8
:100B2000074802F095FF08B944F004044FF48071BF
:100B3000034802F08DFF08B944F00804204610BDB8
:100B40000008004810B50446012C14D0022C0AD02D
:100B5000032C18D100200D49086000214FF080407F
:100B600004F08EFE0FE000200949086000210948CA
:100B700004F086FE07E000200749086000210748CE
:100B800004F07EFE00BF00BF10BD0000200000206A
:100B900024000020002C0140280000200004004018
:100BA0000146012914D002290AD0032918D100BF17
:100BB0004FF08040406A0B4A128800EB02407047B9
:100BC00000BF0948406A094A128800EB0240F6E774
:100BD00000BF0748406A074A128800EB0240EEE770
:100BE0000020ECE720000020002C01402400002021
:100BF000000400402800002010B5002032490860A1
:100C000032490860324908604FF400020121880728
:100C100004F030FC4FF400021021880604F02AFC96
:100C20004FF4000201212B4804F024FC4FF4000291
:100C30001021284804F01EFC4FF400020121264830
:100C400004F018FC4FF400021021234804F012FCB9
:100C5000642002F025FC4FF0804004F053FB1D4857
:100C600004F050FB1C4804F04DFB00214FF0804085
:100C700004F006FE0021174804F002FE0021164889
:100C800004F0FEFD4FF0804004F05EFB114804F0DC
:100C90005BFB114804F058FB4FF0804004F04AFB26
:100CA0000C4804F047FB0C4804F044FB0A2002F017
:100CB000F7FB4FF0804004F025FB064804F022FBD0
:100CC000054804F01FFB10BD200000202400002078
:100CD00028000020002C0140000400402DE9F041D4
:100CE00006460C46002C12DB2046E11704EB1141AE
:100CF0000D142046E21704EB12421214A4EB024139
:100D0000002901DB0A4600E04A42174613E020466C
:100D1000E11704EB114109144D1EE21704EB1242D6
:100D20001214A4EB024202F58031002901DB0A46CD
:100D300000E04A421746012E12D0022E09D0032E9F
:100D400015D10C48056039464FF0804004F098FDFD
:100D50000DE0094805603946084804F091FD06E0B9
:100D6000074805603946074804F08AFD00BF00BF08
:100D7000BDE8F0812000002024000020002C01406C
:100D800028000020000400402DE9F05F04460D46D5
:100D9000164616B90020BDE8F09F04F0070028B9F8
:100DA00005F0070010B906F0070008B10120F2E7CE
:100DB000B4F1006F26D3A119294800884FF6FF72BD
:100DC000904202D14FF4002003E02548008800043F
:100DD000800900F10060814214D8B5F1006F11D391
:100DE000A9191F4800884FF6FF72904202D14FF4B4
:100DF000002003E01A4800880004800900F1006028
:100E0000814201D90120C6E7A54202D3A019A84218
:100E100004D8AC4204D3A819A04201D90120BAE7F2
:100E200002F018FDA2464FEAD60B4FF0000910E081
:100E30000AEBC90005EBC901D0E900733A4600206E
:100E400002F0A8FC18B102F05FFC0120A3E709F151
:100E50000109D945ECD302F057FC00209BE70000C4
:100E6000E075FF1F2DE9F04105460E462C46AF19EF
:100E7000C4F30A0010B10320BDE8F08108E00121AD
:100E8000204600F009F808B10320F5E704F50064F6
:100E9000BC42F4D30020EFE72DE9F04186B00546CF
:100EA0000C460020019002F0D5FC284600F01AF80C
:100EB0000746284600F050F880460020029003972D
:100EC000CDF81080059401A902A802F0FDFA0646AB
:100ED00002F01AFC1EB9002006B0BDE8F081032024
:100EE000FAE7000001460020194A126802F48072F5
:100EF000B2B9184A12884FF6FF739A4202D14FF4E2
:100F0000002203E0134A1288120492094FF0006392
:100F100003EB52028A4201D9012017E0022015E0BA
:100F20000C4A12884FF6FF739A4202D14FF4002206
:100F300003E0084A1288120492094FF0006303EBA1
:100F400052028A4201D9022000E0012070470000CD
:100F500000000140E075FF1F01460020054A914254
:100F600003D2A1F10062D00A02E0024A8A1AD00A32
:100F7000704700000000040800B58DB002F06AFC64
:100F800000BF4FF400401549086100BF02F0EAFBC2
:100F9000684602F01BFB0420009080200590069814
:100FA00000F48010B0F5801F02D10020069002E00E
:100FB0004FF480100690684602F04EFB10B10420FA
:100FC0000DB000BD02F0B0FB08B10420F8E702F05C
:100FD000B9FB02F099FB0020F2E70000002002407C
:100FE0002DE9FC470646894614464FF0000A02F0F8
:100FF00031FC00250FE009EBC50006EBC501D0E987
:1010000000733A46002002F0C5FB8246BAF1000F99
:1010100000D003E06D1CB5EBD40FECD300BFBAF1E8
:10102000000F1BD104F00700C0B14FF0FF3000905B
:10103000019009EB040004F00703C11A04F0070251
:101040006846FFF76EFB301904F00702811A002092
:10105000DDE9002302F09EFB824600BF02F054FB54
:10106000BAF1000F02D00120BDE8FC870020FBE7A9
:1010700010B50446012C04D0022C08D0032C12D148
:101080000BE001221021094802F0F4FC0CE00122DF
:101090002021064802F0EEFC06E001224021034830
:1010A00002F0E8FC00E000BF00BF10BD000C0048EB
:1010B00010B50446012C04D0022C08D0032C12D108
:1010C0000BE000221021094802F0D4FC0CE00022C1
:1010D0002021064802F0CEFC06E000224021034811
:1010E00002F0C8FC00E000BF00BF10BD000C0048CB
:1010F00010B50446012C04D0022C07D0032C0FD1CC
:1011000009E01021084802F0ABFC0AE02021064863
:1011100002F0A6FC05E04021034802F0A1FC00E03B
:1011200000BF00BF10BD0000000C004870B50546B0
:101130000C46012D04D0022D0DD0032D21D115E038
:1011400024B10121104804F0D9F803E001210E4830
:1011500004F0D0F816E024B101210C4804F0CEF8D8
:1011600003E00121094804F0C5F80BE024B1012196
:10117000074804F0C3F803E00121054804F0BAF879
:1011800000E000BF00BF70BD0044014000340140DA
:101190000048014010B50021144804F06BFB1348CF
:1011A00004F0C3F8114804F0CAF801210F4804F014
:1011B000A1F800210E4804F05DFB0D4804F0B5F8DD
:1011C0000B4804F0BCF80121094804F093F8002111
:1011D000084804F04FFB074804F0A7F8054804F05E
:1011E000AEF80121034804F085F810BD0044014029
:1011F000003401400048014070B52DED028B0446DB
:10120000B0EE408AB5EEC08AF1EE10FA04D29FED3E
:101210002A0AB0EE408A0AE0B7EE000AB4EEC08AAD
:10122000F1EE10FA03DDB7EE000AB0EE408A012CB1
:1012300004D0022C15D0032C39D125E000BF1F4863
:10124000C06A401C00EE100AB8EE400A20EE080A00
:10125000BCEEC00A10EE105A2946184804F00AFBEA
:1012600026E000BF1648C06A401C00EE100AB8EE27
:10127000400A20EE080ABCEEC00A10EE105A2946B9
:101280000F4804F0F7FA13E000BF0E48C06A401C94
:1012900000EE100AB8EE400A20EE080ABCEEC00AC2
:1012A00010EE105A2946074804F0E4FA00E000BFA7
:1012B00000BFBDEC028B70BD000000000044014087
:1012C00000340140004801402DE9F04780460C46BB
:1012D00024B124480068B4EB500F01D9BDE8F08771
:1012E000214D00260027B8F1010F06D0B8F1020FFA
:1012F00013D0B8F1030F30D11FE000BF1B48806A44
:101300000646701CB5FBF0F7B7FBF4F0A0F101093D
:101310004946164804F0B2FA20E000BF1448806A3B
:101320000646701CB5FBF0F7B7FBF4F0A0F101091D
:1013300049460F4804F0A2FA10E000BF0D48806A49
:101340000646701CB5FBF0F7B7FBF4F0A0F10109FD
:101350004946084804F092FA00E000BF00BF00BF11
:10136000BCE700007C0100200068890900440140BE
:1013700000340140004801402DE9F04107460E4687
:10138000012F04D0022F06D0032F0BD107E00D4C04
:101390004FF4807508E00C4C4FF4805504E00B4C82
:1013A000102501E0BDE8F08100BF26B129462046A6
:1013B00003F0B0FE03E02946204603F0AFFE00BF75
:1013C000F0E70000000C004800100048000800484A
:1013D00010B504462046FFF7E3FB10BD10B5FFF73C
:1013E0000BFCFFF7D7FE00210120FFF7C5FF00210E
:1013F0000220FFF7C1FF00210320FFF7BDFF1021EE
:10140000012000F06FF91021022000F06BF910218B
:10141000032000F067F90121084600F01FFA0121BE
:10142000022000F01BFA0121032000F017FA10BD82
:1014300070B505460C460026012D04D0022D17D0AC
:10144000032D40D129E04CB90121204803F057FE7B
:1014500008B9012000E00020064608E002211B48F0
:1014600003F04DFE08B9012000E0002006462AE006
:101470004CB91021154803F042FE08B9012000E0E4
:101480000020064608E02021104803F038FE08B985
:10149000012000E00020064615E04CB940210B4831
:1014A00003F02DFE08B9012000E00020064609E007
:1014B0004FF40051064803F022FE08B9012000E075
:1014C0000020064600BF00BF304670BD0010004837
:1014D0000008004870B504460D46012C04D0022CCB
:1014E00041D0032C3ED17DE0F5B901215E4803F0E7
:1014F00006FE58B9601E5D4951F8300020B3601EE9
:1015000051F830202946204690472BE0601E57496D
:1015100001EBC0004068B8B1601E01EBC000294675
:101520004268204690471DE002214F4803F0E7FD46
:1015300058B9601E4D4951F8300028B1601E51F86D
:1015400030202946204690470CE0601E474901EBB9
:10155000C000406830B1601E01EBC00029464268FF
:10156000204690477EE0F5B910213F4803F0C7FDC3
:1015700058B9601E3D4951F8300020B3601E51F843
:1015800030202946204690472BE0601E374901EB6A
:10159000C0004068B8B1601E01EBC0002946426837
:1015A000204690471DE020212F4803F0A8FD58B9A0
:1015B000601E2E4951F8300028B1601E51F83020CD
:1015C0002946204690470CE0601E284901EBC000E8
:1015D000406830B1601E01EBC000294642682046D9
:1015E00090473FE0F5B940211F4803F088FD58B906
:1015F000601E1E4951F8300028B3601E51F830209B
:101600002946204690472CE0601E184901EBC00097
:101610004068C0B1601E01EBC00029464268204608
:1016200090471EE04FF40051114803F068FD58B98F
:10163000601E0E4951F8300028B1601E51F830206C
:101640002946204690470CE0601E084901EBC00087
:10165000406830B1601E01EBC00029464268204658
:10166000904700BF00BF70BD00100048FC03002081
:101670000008004810B5431E034C44F8331004EB37
:10168000C3035A6010BD0000FC0300202DE9F041A7
:1016900007460E46012F04D0022F06D0032F0CD18F
:1016A00007E04FF09044402509E04FF0904420259A
:1016B00005E04FF09044102501E0BDE8F08100BF47
:1016C00016B1012E0AD104E02946204603F022FD7E
:1016D00005E02946204603F021FD00E0EDE700BFCC
:1016E00000BFEAE72DE9F04781468846B9F1010FCE
:1016F00006D0B9F1020F09D0B9F1030F11D10BE0F7
:10170000244C4FF4806526466F000CE0224C4FF4C9
:101710000055224E6F1006E0204C01252646022778
:1017200001E0BDE8F08700BFB8F1000F09D0B8F1C3
:10173000010F21D0B8F1100F15D0B8F1110F24D13D
:1017400008E02946204603F0E5FC3946304603F020
:10175000E1FC1BE02946204603F0E0FC3946304618
:1017600003F0DCFC12E02946204603F0D7FC3946A2
:10177000304603F0CFFC09E02946204603F0CAFCBE
:101780003946304603F0CAFC00E0CAE700BF00BF9C
:10179000C7E70000000C00480010004800040048A3
:1017A00070B504460D4629462046FFF797FA70BDEE
:1017B00010B504462046FFF7C5F910BD70B50646C2
:1017C0000C461546012E04D0022E0FD0032E27D131
:1017D00019E0012C04D161031D4803F09BFC04E0D7
:1017E0004FF400511A4803F099FC1AE0012C04D17F
:1017F0006103184803F08EFC04E04FF400511548D3
:1018000003F08CFC0DE0012C04D1A102124803F07E
:1018100081FC04E04FF480610F4803F07FFC00E09E
:1018200070BD00BF25B900213046FFF77FFCF7E708
:1018300029463046FFF748FDB6EE000A3046FFF76E
:10184000DBFC01213046FFF771FC00BFE8E7000038
:10185000000C004800040048001000482DE9F04149
:1018600007460E46012F04D0022F06D0032F0BD1BE
:1018700007E0104C4FF4007508E00F4C4FF4804522
:1018800004E00E4C202501E0BDE8F08100BF16B158
:10189000012E0AD104E02946204603F03FFC05E072
:1018A0002946204603F036FC00E0EDE700BF00BF0C
:1018B000EAE70000000C004800100048000800485B
:1018C00070B505460C4614B1012C0ED108E000217C
:1018D0002846FFF72BFC01212846FFF7D7FE04E03E
:1018E00000212846FFF7D2FE00BF00BF70BD0146B1
:1018F000081D70470146B1F8040A704710B5044648
:1019000020680068C069C0F3001070B3102021681F
:1019100009680862206802F07FFE2068D0F8800025
:1019200000684068C0F5A060A4F8040A022084F8AA
:10193000060A20680068C069C0F3C00058B10820DA
:1019400021680968086220202168C1F88C00002005
:10195000216881F8840010202168096808624FF42A
:10196000A062211D206803F04DF910BD70B504463A
:101970000D4625600020A4F8040A84F8060A4FF4F6
:10198000A061201DFEF73CFF4FF4A06104F204505B
:10199000FEF736FF70BD014691F8060A022801D114
:1019A000012070470020FCE72DE9F04106460D4676
:1019B00000243046FFF7EFFF90B13046FFF79AFF63
:1019C0000446402C00DD40243046FFF790FF0746D8
:1019D000224639462846FEF7A4FE304600F003F8BA
:1019E0002046BDE8F081012180F8061A0021A0F808
:1019F000041A704710B50446012084F8060A102026
:101A000021680968086220680068006840F01000DA
:101A10002168096808604FF4A062211D206803F066
:101A2000F1F810BD70B504460E461546B5F5A06F29
:101A300001DD4FF4A0652A46314604F20450FEF75A
:101A400070FE2A4604F20451206803F00BF970BDC1
:101A50001FB50F4B0FCB8DE80F0006F051FE06F0BF
:101A600033FE06F039FE0B490B4808F041FE0B49E6
:101A70000B4808F051FE0B490B4808F067FE0B4974
:101A80000B4808F021FE6946012007F01BFD1FBD31
:101A900018CF0008C98600082987000859B0000837
:101AA0002DB0000865B000083BB0000829B0000860
:101AB00025B0000800BFFEE72DE9F04F2DED028BA9
:101AC00083B006460D460027B6F80F80B94696F853
:101AD00011A0504604F0AEFF044644B90720C5F8F3
:101AE0003500022003B0BDEC028BBDE8F08FB8F5E5
:101AF000097F70D034DC40F21221A8EB0100884548
:101B00006AD01ADCB8F5827F67D00ADCB8F5807F2E
:101B100064D0A8F20110E0B3012874D002286ED17D
:101B2000CEE0A8F2051000286AD0012869D002286A
:101B300068D0B0F5867FF2D16DE105287DD008DC54
:101B400001287BD002287AD0032879D00428E6D156
:101B5000A7E10F2875D0102874D01128DFD118E222
:101B600040F22331A8EB010088456CD019DC40F22B
:101B70001631A8EB0100884566D00BDCA8F21130C5
:101B800000287DD002287CD003287BD00428C6D131
:101B900083E22BE0012876D00B2875D00C28BED12B
:101BA000A6E2B0F53D7F70D00CDC01286ED0A0F22B
:101BB000F11000286BD002286AD0A0F20110002892
:101BC000ADD14EE1A0F2F920002877D0012876D0DF
:101BD0000228A4D1D1E2FBE148E195E096F812B0E9
:101BE00059465046A26890470227DCE296F812B0A8
:101BF00059465046626990470227D4E203E0D1E299
:101C00008EE0ABE0F7E09FEDFE0A8DED020AD6F81C
:101C1000130002906068C07918B16068C07901282B
:101C200039D1B07C98B16068D0F8020000EE100A9B
:101C3000DDED020A20EE200A07E03AE11BE121E196
:101C400027E156E17DE1F4E12EE28DED020A6068C4
:101C5000D0F8330000EE100ADDED020A30EE200A63
:101C60008DED020A23699DED020ABDEEC00A10EE59
:101C7000102A01215046984701215046626908E028
:101C8000D1E0FEE103E2C6E115E2DEE0E5E1E3E0FA
:101C9000CEE0904710E06068C079022803D0606809
:101CA000C079032808D1A1699DED020A50468847F2
:101CB0000121504662699047022774E235E24EE204
:101CC0009FEDCF0A8DED020AD6F813000290B07C8A
:101CD00050B16068D0F8020000EE100ADDED020A93
:101CE00020EE200A8DED020A23699DED020ABDEE69
:101CF000C00A10EE102A0021504698470121504694
:101D00006269904702274EE25046E16988479FED9D
:101D1000BC0A10EE100A6168C1F83300022742E2E3
:101D20005046E168884783466068D0F8330000EE8B
:101D3000900A00EE10BAB8EEC00A30EE600ABDEEAE
:101D4000C00A10EE10BA0021A974C5F813B061687A
:101D5000D1F80210C5F81710022724E201F0C0F9EB
:101D6000CDE900015046E168884783466068D0F8B5
:101D7000330000EE900A00EE10BAB8EEC00A30EE62
:101D8000600ABDEEC00A10EE10BA60684178A9740E
:101D900060688179E9746068C17929750021697585
:101DA0006068417AA9756068817AE9756068D0F8E1
:101DB0002B00002802DA4FF0FF3007E06068D0F80F
:101DC0002B00002801DD012000E00020287661685A
:101DD000D1F80210C5F81910C5F81DB06168D1F826
:101DE0002B10C5F821100099C5F825100199C5F8E8
:101DF00029100227D7E1606890F82B10A974616858
:101E0000D1F82B10C5F813106168D1F80210C5F88D
:101E100017100227C7E196F812B059465046226AB9
:101E200090470227BFE16068C179A9740227BAE12F
:101E30009FED730A8DED020AD6F812000290029807
:101E40006168C1F802000227ADE16168D1F80210B3
:101E5000C5F812100227A6E1B07C6168487002271D
:101E6000A1E160684178A97402279CE1B07C6168B7
:101E70008872022797E10020D6F813006168C866CF
:101E8000022790E10020D6F8130061684867022716
:101E900089E10020D6F813006168C1F80B00022721
:101EA00081E10020D6F813006168C1F80F00022715
:101EB00079E19FED530A8DED020A9FED510A8DEDF8
:101EC000010A9FED4F0A8DED000AD6F8120002902C
:101ED000D6F816000190D6F81A00009002986168B2
:101EE000486401986168886400986168C864022742
:101EF00059E10020D6F81300B17C71B16168D1F8C6
:101F0000021000EE901A00EE100AB8EEC00A20EEA1
:101F1000800ABDEEC00A10EE100A6168D1F83310D5
:101F200000EE901A00EE100AB8EEC00A30EE800AF9
:101F3000BDEEC00A10EE100A6168C1F81300022756
:101F400031E10020D6F81300B17C71B16168D1F89D
:101F5000021000EE901A00EE100AB8EEC00A20EE51
:101F6000800ABDEEC00A10EE100A6168D1F8331085
:101F700000EE901A00EE100AB8EEC00A30EE800AA9
:101F8000BDEEC00A10EE100A6168C1F81700022702
:101F900009E1002000EE100AD6F8130000EE100A46
:101FA000B07C60B16068D0F8020000EE900AB8EE34
:101FB000C01A60EE810AFDEEE00AB0EE600AF8EEAB
:101FC000C00A10EE900A6168C1F83B000227EAE0FF
:101FD000002000EE100AD6F8130000EE100AB07CC4
:101FE00060B16068D0F8020000EE900AB8EEC01A46
:101FF00060EE810AFDEEE00AB0EE600A02E0000049
:1020000000000000F8EEC00A10EE900A6168C1F806
:1020100037000227C7E06168496CC5F81210606894
:10202000806CC5F816006068C06CC5F81A000227FD
:10203000B9E06168D1F83B1000EE101ABDEEC00A9D
:1020400010EE100A0022AA74C5F813006268D2F8D4
:102050000220C5F817200227A5E06168D1F83710E3
:1020600000EE101ABDEEC00A10EE100A0022AA748B
:10207000C5F813006268D2F80220C5F817200227BD
:1020800091E06068C06EC5F8120002278BE06068BE
:10209000406FC5F81200022785E06168D1F80B1087
:1020A000C5F8121002277EE06168D1F80F10C5F85C
:1020B0001210022777E06168D1F813006168D1F847
:1020C000331000EE901A00EE100AB8EEC00A30EE9F
:1020D000600ABDEEC00A10EE100A0022AA74C5F80C
:1020E00013006268D2F80220C5F8172002275AE0D0
:1020F0006168D1F817006168D1F8331000EE901ACA
:1021000000EE100AB8EEC00A30EE600ABDEEC00A5A
:1021100010EE100A0022AA74C5F813006268D2F803
:102120000220C5F8172002273DE01FED4B0A8DED78
:10213000020AD6F813000290B07C50B16068D0F863
:10214000020000EE100ADDED020A20EE200A8DEDFD
:10215000020A02986168C1F83300022723E00021D7
:10216000A9746168D1F80210C5F813106168D1F83C
:102170003310C5F81710022715E05046E16888476C
:1021800008EE100AB8EEC80A8DED020A0021A97403
:102190006168D1F80210C5F813100299C5F817103C
:1021A000022700E000BF00BFB9F1000F02D00320FA
:1021B000C5F83500384695E42DE9FF4105460C4643
:1021C0000026B5F80F70042F04D0052F0ED0062F6F
:1021D00072D1BCE06248FEF785FA8046424660490B
:1021E00004F11100FEF79DFA0226B3E05DA04179EB
:1021F00030395CA00079202801D1002002E059A0EC
:102200000079303800EB800001EB400055A10978DF
:102210004A2909D153A14978612905D151A1897869
:102220006E2901D1012365E04EA10978462901D12B
:1022300002235FE04BA109784D2909D149A14978D2
:10224000612905D147A18978722901D1032351E081
:1022500044A10978412905D142A14978702901D1C9
:10226000042347E03FA109784D2909D13DA14978D0
:10227000612905D13BA18978792901D1052339E06C
:1022800038A109784A2909D136A14978752905D19B
:1022900034A189786E2901D106232BE031A1097878
:1022A0004A290AD12FA14978752906D12DA189780B
:1022B0006C2902D107231DE04BE02AA109784129AE
:1022C00005D128A14978752901D1082312E025A15B
:1022D0000978532901D109230CE022A109784F295B
:1022E00001D10A2306E01FA109784E2901D10B2351
:1022F00000E00C231BA1C97930394FF47A7211FB2D
:1023000002F218A1097A303901EBC10C0CEB011172
:1023100002EB810213A1497A303901EB810102EB12
:10232000410210A1897A303911440D4A92F82520D2
:10233000CDE9011300920390094890F824300CA2D3
:10234000242104F11100FEF7B3F8022602E0022670
:1023500000E000BF00BF304604B0BDE8F0810000DF
:1023600018010020417072203230203230323600A5
:102370005625642E25642E2530326425303264259E
:10238000303264002DE9F04F89B005460C46002735
:10239000B5F80F80A8F11000062871D2DFE800F030
:1023A00003CCD2FDE9FC00F0A5FE064696F8240019
:1023B000607496F82500A07483A0C0793038E821B5
:1023C00010FB01F180A0007A303800EBC00202EB74
:1023D000001001EB80017CA0407A303800EB8000D7
:1023E00001EB400178A0807A30380844E07476A090
:1023F000C07930384FF47A7110FB01F172A0007A85
:10240000303800EBC00202EB001001EB80016EA03F
:10241000407A303800EB800001EB40016AA0807AFE
:1024200030380844010A217567A000784A2809D18C
:1024300065A04078612805D163A080786E2801D11D
:10244000012065E060A00078462801D102205FE00D
:102450005DA000784D2809D15BA04078612805D1A6
:1024600059A08078722801D1032051E056A000784D
:10247000412806D154A04078702802D1042047E0BA
:102480009CE051A000784D2809D14FA040786128E8
:1024900005D14DA08078792801D1052038E04AA0E7
:1024A00000784A2809D148A04078752805D146A06F
:1024B00080786E2801D106202AE043A000784A28BF
:1024C00009D141A04078752805D13FA080786C28BB
:1024D00001D107201CE03CA00078412805D13AA09A
:1024E0004078752801D1082012E037A000785328E1
:1024F00001D109200CE034A000784F2801D10A2036
:1025000006E031A000784E2801D10B2000E00C201D
:1025100060752DA0417930392BA00079202801D198
:10252000002002E028A00079303800EB800001EBA9
:102530004000A075022742E006F040F806466674A7
:1025400002273CE0D5F81160152050F805901920BD
:1025500030F805A052464946304606F035F8834625
:10256000BBF1000F01D1012000E0022060740227BE
:1025700025E0D5F8116005F11509202101A8FEF725
:102580003FF92022494601A8FEF7CBF8202201A9F5
:10259000304606F071F801E006E001E002270EE0A7
:1025A00006F05CF802270AE005F0D8FF06460EB9EF
:1025B000012000E002206074022700E000BF00BF9D
:1025C000384609B0BDE8F08F4170722032302032B9
:1025D0003032360010B5024800F018FE10BD000081
:1025E000F002002010B5024800F010FE10BD0000FF
:1025F0005003002030B50E4D0468AC4201D20D49A5
:1026000001E00C4920310B460478083C1425B4FB4A
:10261000F5F2446CA40803EB84048464054C803414
:10262000C46402F01F050124AC40046530BD000005
:10263000080402400008024001794A1E064B03EBE1
:1026400082024265044A403282654A1E02F01F033C
:1026500001229A40C26570470009024030B5D0E9B6
:1026600013546C60446D14B1D0E916546C6090F84A
:10267000444004F01F050124AC40056C6C60046804
:1026800063608468102C04D10468A2600468E1606F
:1026900003E00468A1600468E26030BD70B50246E2
:1026A0000C46FF25FF2309E012F8010B80EA050123
:1026B0000648405C80EA03050548435C201EA4F1FF
:1026C0000104F1D145EA032070BD000028CF0008C5
:1026D00028D000087047000010B5062211494FF4B9
:1026E000106006F0E3F804220E490E394FF47060D2
:1026F00006F0DCF804220B4908394FF4A06006F01C
:10270000D5F804220749091F900106F0CFF80548C3
:102710000F38B0F8052000230221184608F01AF9F6
:1027200010BD000068000020C4B0002400204390C9
:102730004290802122A8FEF763F8802102A8FEF7CC
:102740005FF8FFF7C9FF34E04FF4427005F0F4FF83
:1027500022282BD14FF4027005F0EEFF00F00400A8
:1027600020B104214FF4027006F066F8002006F054
:1027700041FF0446002C19DD42A843AB802222A968
:102780000090002007F06CFE84B2402C0EDB02A902
:1027900022A806F0CFF8012808D0BDF8080143AB05
:1027A000402202A90090002007F0EAFF052006F071
:1027B000D7FFC9E710B504490448FFF7D7F8034825
:1027C000FFF718F910BD00005C020020140400207F
:1027D000C0B0802120A8FEF713F880216846FEF7DC
:1027E0000FF804F0F1FF18E020A90C48FFF7DCF81F
:1027F0000446402C0DDB0120FEF77AFC694620A838
:1028000006F098F8012804D0402269460348FFF7F3
:1028100009F9052006F0A4FF00BFE5E71404002035
:1028200010B5012002F0C8FB30B1012002F0A6FA79
:1028300000210120FEF74EFE10BD10B54FF40050F0
:1028400002F0BAFB38B14FF4005002F097FA0121C0
:102850000320FEF73FFE10BD10B5022002F0ACFBD6
:1028600030B1022002F08AFA01210846FEF732FE5A
:1028700010BD10B5102002F09FFB30B1102002F007
:102880007DFA00210220FEF725FE10BD10B52020A4
:1028900002F092FB30B1202002F070FA01210220F8
:1028A000FEF718FE402002F087FB30B1402002F016
:1028B00065FA00210320FEF70DFE802002F07CFB6C
:1028C00010B1802002F05AFA10BD72B600BFFEE7C8
:1028D0001B49087F012801D0032816D1194909682E
:1028E00021F40071174A116000BF1146096841F4D4
:1028F000006111601146096821F40061116000BF98
:102900001146096841F400711160022801D00328C2
:1029100011D100BF0B49096841F48051094A116087
:102920001146096821F48051116000BF1146096801
:1029300041F4806111600021014A11777047000065
:102940005C010020002002401249096A01F4800164
:1029500091B100F0010129B10E49496941F004012A
:102960000C4A516100F0020169B10A49496941F418
:102970000041084A516106E00649496948F20402EB
:102980001143044A51610349496941F48031014AC4
:10299000516170470020024070B504464FF47A70D0
:1029A00000F058FB054685B90948006F20F48030D7
:1029B0002043074908670846406940F400304861F1
:1029C0004FF47A7000F046FB0546284670BD0000C3
:1029D000002002400248006F00F480307047000081
:1029E00000200240F0B50346474E366806F4807674
:1029F00096B94FF00064454E36884FF6FF77BE42D9
:102A000001D1261203E0414E36883604B6094FF054
:102A1000006707EB560511E03C4E36884FF6FF770E
:102A2000BE4202D14FF4002603E0384E3688360409
:102A3000B6094FF0006707EB56043D46344E366A40
:102A400006F480067EBB1E7806F00306012E12D126
:102A50002F4E766AC6F30E004FF0006606EB0016A6
:102A60000E602B4EB66AC6F30E004FF0006606EB02
:102A7000001616603FE01E7806F00306022E3AD1DB
:102A8000234E766CC6F30E004FF0006606EB001680
:102A90000E601F4EB66CC6F30E004FF0006606EBDC
:102AA0000016166027E0FFE71E7806F00306012EE9
:102AB0000ED1174E766AC6F30E0004EBC0060E6008
:102AC000134EB66AC6F30E0004EBC006166012E0A1
:102AD0001E7806F00306022E0DD10D4E766CC6F35D
:102AE0000E0005EBC0060E60094EB66CC6F30E0074
:102AF00005EBC0061660064F1E68BF6A07F0004768
:102B00003E431E60F0BD000000000140E075FF1F65
:102B1000002002400548006AC1B2AA2903D0CC298E
:102B200001D0BB2070470846FCE7000000200240AF
:102B3000012804D1054A126FD2B20A6005E00228CA
:102B400003D1024A526FD2B20A607047002002409D
:102B50000249086A20F0FF00704700000020024090
:102B600050B9194BDB6A03F07F030B60164BDB6A2D
:102B7000C3F30643136025E001280AD1124B1B6BF7
:102B800003F07F030B60104B1B6BC3F30643136012
:102B900018E002280AD10C4BDB6C03F07F030B60BA
:102BA000094BDB6CC3F3064313600BE0042809D127
:102BB000054B1B6D03F07F030B60034B1B6DC3F3D1
:102BC0000643136070470000002002402DE9F047E3
:102BD00005460E4617464FF47A7000F03BFA8246DF
:102BE000BAF1000F78D15248006800F4807098B9AB
:102BF0004FF000684F4800884FF6FF71884202D1BD
:102C00004FF4002003E04B480088000480094FF097
:102C1000006101EB500911E0464800884FF6FF7152
:102C2000884202D14FF4002003E0424800880004AB
:102C300080094FF0006101EB500889463E48006A68
:102C400000F4800078BB05F00300012813D1A6F141
:102C5000006004093848406A6FF30E00204336498B
:102C60004862A7F1006004090846806A6FF30E000D
:102C70002043886248E005F00300022844D1A6F111
:102C8000006004092C48406C6FF30E0020432A4971
:102C90004864A7F1006004090846806C6FF30E00D9
:102CA0002043886430E0FFE705F00300012814D1D9
:102CB000A6EB0800C4082048406A6FF30E002043CA
:102CC0001D494862A7EB0800C4080846806A6FF3F4
:102CD0000E002043886217E027E005F00300022879
:102CE00012D1A6EB0900C4081348406C6FF30E0024
:102CF000204311494864A7EB0900C4080846806CCA
:102D00006FF30E00204388640B48816A284661F304
:102D10001E00094988620846406940F40030486155
:102D20004FF47A7000F096F982465046BDE8F0877D
:102D300000000140E075FF1F0020024070B504460E
:102D40004FF47A7000F086F9054685B90948006AA3
:102D500020F0FF002043074908620846406940F41C
:102D6000003048614FF47A7000F074F90546284647
:102D700070BD00000020024070B504460D464FF4BF
:102D80007A7000F067F90646EEB9012C07D10F48BA
:102D9000006F20F0FF0028430C49086708E0022C70
:102DA00006D10A48406F20F0FF00284307494867D2
:102DB0000648406940F40030044948614FF47A7095
:102DC00000F048F90646304670BD00000020024081
:102DD0002DE9F04104460D46002600274FF47A7095
:102DE00000F038F98046B8F1000F7DD104F0010001
:102DF00020B105F4E060064347F4E06704F0020008
:102E000020B105F48050064347F4805704F00400D5
:102E100020B105F40050064347F4005704F48050F5
:102E200020B105F48040064347F4804704F00800D1
:102E300020B105F48030064347F4803704F01000D9
:102E400020B105F40030064347F4003704F02000B9
:102E500020B105F48020064347F4802704F04000A9
:102E600020B105F40020064347F4002704F0800059
:102E700020B105F48010064347F4801704F4007075
:102E800020B105F40000064347F4000704F4806015
:102E900020B105F08070064347F0807704F40060AD
:102EA00020B105F00070064347F0007704F40050AD
:102EB00020B105F08060064347F0806704F480404D
:102EC00020B105F00060064347F0006704F40040BD
:102ED00020B105F04050064347F0405704F48030DD
:102EE00030B105F0804000E012E0064347F0804733
:102EF0000948006AB84330430749086208464069F8
:102F000040F4003048614FF47A7000F0A3F8804636
:102F10004046BDE8F0810000002002402DE9F0416C
:102F200004460D4616464FF47A7000F093F80746B3
:102F300027BB24B945EA06401249C86213E0012CB8
:102F400004D145EA06400F4908630CE0022C04D185
:102F500045EA06400B49C86405E0042C03D145EA64
:102F60000640084908650748406940F400300549B3
:102F700048614FF47A7000F06DF807463846BDE8B6
:102F8000F081000000200240174A126A02F4800219
:102F900032B9154A526922F40062134B5A610FE0AC
:102FA00001F0010232B1104A526922F400620E4B64
:102FB0005A6105E00C4A526942F400620A4B5A61B8
:102FC000094A526922F47E72C3B242EAC302064B36
:102FD0005A611A46526942F002025A611A4652690F
:102FE00042F480325A6170470020024010B508490F
:102FF000496941F00101064C6161026000BF00BFF8
:1030000000BFBFF36F8F00BF00BF00BF436010BDA4
:1030100000200240F0B50246402314460D460C4EF7
:10302000766946F480260A4F7E6100BFEFF3108672
:10303000304672B600BF2E682660241D2D1D5E1E10
:10304000F3B2002BF7D100BF80F3108800BFF0BDB2
:103050000020024070B5054600F012FD064606E06D
:1030600000F00EFD801BA84201D9032070BD1A4854
:10307000006900F48030B0F5803FF1D01648006957
:103080004CF2FA3100EA0104CCB114484068204304
:103090001249486000BF04F0704030B10E488069AA
:1030A00004F0704108430C49886124F0704018B165
:1030B00024F070400849086100BF0120D6E70648A7
:1030C000006900F0010020B100BF01200249086141
:1030D00000BF0020CAE70000002002405C01002081
:1030E00072B603480268436862B6104619467047D4
:1030F0000000002000487047180100200146002011
:1031000091F82520022A03D00422CA63012027E077
:103110000A68126822F00E020B681A608A6C126844
:1031200022F480728B6C1A600A68126822F0010225
:103130000B681A6091F8442002F01F0301229A40A4
:103140000B6C5A60D1E913325A604A6D42B14A6D34
:10315000126822F480724B6D1A60D1E916325A60FF
:10316000012281F8252000BF002281F8242000BF21
:10317000704770B50446002594F8250002280BD04E
:103180000420E063012084F8250000BF002084F8BB
:10319000240000BF012534E02068006820F00E0004
:1031A000216808602068006820F00100216808603C
:1031B000A06C006820F48070A16C086094F8440052
:1031C00000F01F0101208840216C4860D4E91310F1
:1031D0004860606D40B1606D006820F48070616D82
:1031E0000860D4E916104860012084F8250000BF6B
:1031F000002084F8240000BFA06B10B12046A16B12
:103200008847284670BD0146C86B704770B50446B4
:10321000206C05682068066894F8440000F01F01DF
:10322000042088402840E0B106F00400C8B12068BE
:10323000006800F0200028B92068006820F0040031
:103240002168086094F8440000F01F0104208840C1
:10325000216C4860206B002856D02046216B88479F
:1032600052E094F8440000F01F01022088402840FA
:1032700018B306F0020000B32068006800F02000D8
:1032800040B92068006820F00A0021680860012029
:1032900084F8250094F8440000F01F0102208840C3
:1032A000216C486000BF002084F8240000BFE06A61
:1032B00050B32046E16A884726E094F8440000F0C5
:1032C0001F01082088402840F0B106F00800D8B15E
:1032D0002068006820F00E002168086094F844001F
:1032E00000F01F0101208840216C48600120E0634C
:1032F00084F8250000BF002084F8240000BF606B24
:1033000010B12046616B884770BD000070B504465F
:103310000CB9012070BD2F49206888420BD22E497C
:103320002068401A1421B0FBF1F0800060642A4844
:10333000083820640AE027492068401A1421B0FBAD
:10334000F1F080006064234808382064022084F88B
:1033500025002068056847F6F0708543D4E902012E
:1033600008432169084361690843A1690843E16989
:103370000843216A08430543206805602046FFF79B
:1033800039F9A068B0F5804F01D100206060207944
:10339000A16C0860D4E913104860606860B160688F
:1033A000042809D82046FFF747F90020616D08601E
:1033B000D4E91610486003E000206065A065E06570
:1033C0000020E063012084F82500002084F8240018
:1033D00000BF9FE708040240080002402DE9F041C9
:1033E00004460D4616461F464FF0000800BF94F8ED
:1033F0002400012802D10220BDE8F081012084F8D8
:10340000240000BF94F8250001283FD1022084F851
:1034100025000020E0632068006820F0010021689A
:1034200008603B46324629462046FFF717F9206BD5
:1034300030B12068006840F00E00216808600BE0A1
:103440002068006820F00400216808602068006897
:1034500040F00A0021680860A06C006800F4803029
:1034600028B1A06C006840F48070A16C0860606DA9
:1034700028B1606D006840F48070616D086020685C
:10348000006840F001002168086006E000BF0020ED
:1034900084F8240000BF4FF002084046ACE700006B
:1034A00070B5044600F0ECFA06462546681C10B1DB
:1034B00004480068054400BF00F0E2FA801BA842FF
:1034C000FAD370BD580100202DE9F04104460F46A3
:1034D00000BF3C480078012802D10220BDE8F081FD
:1034E00001203849087000BF4FF47A70FFF7B2FD31
:1034F0000646002E5FD1334948603348006800F427
:10350000007090B13048006800F4806048B12E48E7
:10351000006820F480602C4908600320294908775E
:1035200015E001202749087711E02748006800F4DA
:10353000806048B12448006820F480602249086017
:1035400002202049087702E000201E490877206801
:1035500001280FD16068FFF7F7F94FF47A70FFF791
:1035600079FD06461848406948F204018843164927
:1035700048611EE04FF0FF303860A56813E0284630
:103580006168FFF701FD4FF47A70FFF763FD0646AF
:103590000D48406940F2FA3188430B4948610EB149
:1035A0003D6005E06D1CD4E902010844A842E6D85C
:1035B00000BFFFF78DF900BF00200249087000BF6F
:1035C00030468BE75C0100200020024010B5044625
:1035D00006202060606840B16068012805D06068FE
:1035E000022802D06068042809D1206840F0010058
:1035F000206004F10C02111F6068FFF7B1FAFFF7B9
:1036000089FA2061FFF7A4FAA061E069012802D0DD
:10361000E069022809D1206840F00800206004F128
:103620002402111F081FFFF7DDF9206840F0100089
:103630002060FFF7CFF9A062E06A012802D0E06ABB
:10364000022808D1206840F02000206004F13001F9
:10365000E06AFFF76DFA10BD70B50446002500BFA3
:1036600028480078012801D1022070BD0120254999
:10367000087000BF00204860207800F0010028B1E9
:10368000201D07C8FFF74AFC00B10125207800F093
:10369000020020B12069FFF751FB00B1012520781D
:1036A00000F0040028B1D4E90501FFF791FB00B157
:1036B0000125207800F0080050B1D4E908018842C3
:1036C00006D0D4E90812E069FFF780FA00B10125BD
:1036D000207800F0200028B1D4E90B01FFF74CFB63
:1036E00000B10125207800F0100020B1A06AFFF79A
:1036F00053F900B1012500BF00200249087000BF46
:103700002846B2E75C01002001200649496941F0E2
:103710000041044A51611146496901F0004101B17B
:10372000002070470020024010B50548406940F075
:103730000060034948614FF47A70FFF78BFC10BDBD
:103740000020024001200649496941F08041044AB5
:1037500051611146496901F0804101B10020704773
:103760000020024000200849496901F0804151B120
:103770000649054AD1600649D1601146496901F000
:10378000804101B101207047002002403B2A190806
:103790007F6E5D4C2DE9F0470446884615461E466F
:1037A0004FF0000900BF29480078012802D102200B
:1037B000BDE8F08701202549087000BF4FF47A70FA
:1037C000FFF748FC0746002F38D1204948602048C1
:1037D000006800F4806048B11D48006820F48060F3
:1037E0001B49086002201949087702E000201749A8
:1037F00008773CB92A4633464046FFF7F7FB4FF0BF
:1038000001090BE0012C01D0022C07D129464046CA
:10381000FFF700FC022C01D14FF480294FF47A709D
:10382000FFF718FC0746B9F1000F05D008484069BA
:1038300020EA090006494861FFF74AF800BF002066
:103840000249087000BF3846B2E700005C01002062
:103850000020024000200849496901F0004151B1AF
:103860000649054A9160064991601146496901F08F
:10387000004101B10120704700200240230167454B
:10388000AB89EFCD78B502460B460021CAE0012690
:103890008E401D6805EA0604002C73D01D7905F0E2
:1038A0000305012D04D01D7905F00305022D13D168
:1038B00090684E000325B540A8434E00DD68B54032
:1038C00028439060506801258D40A8431D79C5F3B9
:1038D00000158D40284350601D7905F00305032D28
:1038E00009D0D0684E000325B540A8434E009D681E
:1038F000B5402843D0601D7905F00305022D13D192
:10390000CE0802F1200555F826004D07EE0E0F25D2
:10391000B540A8434E07F60E1D69B5402843CE08B2
:1039200002F1200545F8260010684E000325B54039
:10393000A8431D7905F003054E00B54028431060EB
:103940005D6805F44035002D6BD000BF384D2D6EFD
:1039500045F00105364E356635462D6E05F00105FC
:10396000009500BF00BF4FEAB6358E0855F8260017
:103970008D072E0F0F25B540A843B2F1904F02D10D
:1039800000251AE04DE02B4DAA4201D1012514E09B
:10399000294DAA4201D102250FE0284DAA4201D1AA
:1039A00003250AE0264DAA4201D1042505E0254D54
:1039B000AA4201D1052500E006258E07360FB54045
:1039C0002843214D8E0845F82600204D2868A04345
:1039D0005D6805F4801505B120431C4D28602D1D40
:1039E0002868A0435D6805F4001505B12043174D14
:1039F0002D1D2860154D2D1F2868A0435D6805F416
:103A0000003505B12043114D2D1F28602D1F28685A
:103A1000A0435D6805F4803505B120430B4D083D9A
:103A20002860491C1D68CD40002D7FF430AF78BD63
:103A3000001002400004004800080048000C004844
:103A4000001000480014004808000140080401402C
:103A5000024613690B400BB1012000E000207047C3
:103A600010B5426921EA020302EA010443EA044371
:103A7000836110BD0AB1816100E08162704700007E
:103A800001480068704700005001002070B50446EE
:103A90000CB9012070BD4CF6CC402168086045F29D
:103AA000555021680860D4E9001048602168A0687A
:103AB0008860FFF7E5FF05460BE0FFF7E1FF401BDD
:103AC000312806D92068C06800F0070008B103203B
:103AD000E0E72068C06800F007000028EDD120680A
:103AE0000169E068814203D02168E068086103E071
:103AF0004AF6AA20216808600020CBE701464AF672
:103B0000AA200A681060002070470000034800687F
:103B100003490968084401490860704750010020C2
:103B20005801002010B50024032000F0E7F80F2012
:103B300000F008F808B1012401E000F051F8204637
:103B400010BD0000F0B587B004460026002700BF76
:103B50001E48806D40F004001C4988650846806D51
:103B600000F00400009000BF00BF01A902A800F00F
:103B70008FF900F0B5F946001548B6FBF0F0471E86
:103B800014481549086040F2E7311348C1604760A6
:103B900000210161816000F0D2FA054695B90E4816
:103BA00000F026FB05466DB91E2000F055F8102CDC
:103BB00007D2002221461E2000F062F80748046068
:103BC00000E00125284607B0F0BD000000100240CB
:103BD00040420F0000080040B003002054010020C4
:103BE0000EB500200190029000BF1A48006E40F010
:103BF0000100184908660846006E00F001000090B8
:103C000000BF00BF00BF0846806D40F0805088654F
:103C10000846806D00F08050009000BF00BF002279
:103C20000F21901E00F02CF800220521012000F049
:103C300027F8012000F010F8002001904FF001104B
:103C4000029001A800F0BCF800F016F900F06AF844
:103C50000EBD0000001002400146084600280DDBA2
:103C600000BF00BF00F01F0301229A4043099B00E0
:103C700003F1E023C3F8002100BF00BF00BF70477D
:103C80002DE9F05F80460D46164604F003FF074617
:103C900039462A46334601F00700C0F1070ABAF157
:103CA000040F02D94FF0040A01E0C0F1070AD1461F
:103CB00000F1040ABAF1070F02D24FF0000A01E046
:103CC000A0F1030AD4464FF0010A0AFA09FAAAF150
:103CD000010A0AEA020A0AFA0CFA4FF0010B0BFA7F
:103CE0000CFBABF1010B0BEA030B4AEA0B04214678
:103CF000404604F0FFFEBDE8F09F000000BF00F06A
:103D00000702064B19684FF6FF031940044B0B439B
:103D100043EA0221014B196000BF70470CED00E03F
:103D20000000FA050348806840F48040014988603B
:103D3000704700000070004010B51E48006800F495
:103D4000803028B100F0A2F84FF4803019490860A3
:103D500018482030006800F0080028B100F02CF866
:103D6000082014492031086012482030006800F013
:103D7000100028B100F021F810200E492031086011
:103D80000C482030006800F0200028B100F016F840
:103D9000202008492031086006482030006800F0E3
:103DA000400028B100F00BF84020024920310860A3
:103DB00010BD000014040140704770477047704701
:103DC00001462B48406820F00E000A681043284A3C
:103DD00050602848006820F48030264A1060101F88
:103DE000006820F48030121F1060224808300068FC
:103DF00020F480301F4A08321060101F006820F441
:103E00008030121F1060486800F48030B0F5803FA9
:103E100007D11848001F006840F48030154A121F6F
:103E20001060486800F40030B0F5003F05D111483B
:103E3000006840F480300F4A1060087900F00100FB
:103E400038B10C48001D006840F48030094A121D4A
:103E50001060087900F00200022807D105480830F8
:103E6000006840F48030034A083210600020704738
:103E700000700040040401400348406840F0010025
:103E80000149486070470000007000407047000022
:103E90000F2202600D4A926802F0030242600B4A50
:103EA000926802F0F0028260084A926802F4E062CE
:103EB000C260064A926802F46052D2080261044A63
:103EC000126802F00F020A60704700000010024002
:103ED0000020024001480068704700007C0100207B
:103EE00000B5FFF7F7FF05498968C1F30221044ACD
:103EF000515C01F01F01C84000BD000000100240ED
:103F000060D1000800B5FFF7E5FF05498968C1F3F6
:103F1000C221044A515C01F01F01C84000BD0000ED
:103F20000010024060D1000870B5224DAD6805F068
:103F30000C05042D01D120483AE01E4DAD6805F076
:103F40000C05082D01D11D4832E01A4DAD6805F071
:103F50000C050C2D2BD1174DED6805F00304154D04
:103F6000ED68C5F303156A1C022C0CD0032C09D193
:103F7000124DB5FBF2F50F4EF668C6F3062605FBAB
:103F800006F10AE000BF0C4DB5FBF2F5094EF668EC
:103F9000C6F3062605FB06F100BF00BF054DED6820
:103FA000C5F341656D1C6B00B1FBF3F000E0002030
:103FB00070BD0000001002400024F40000127A00DE
:103FC0002DE9F04104460D4616461F4614B901205E
:103FD000BDE8F081D4F8880028B9002084F8840076
:103FE000204600F061FD2420C4F8880020680068A5
:103FF00020F0010021680860A06A10B1204603F09B
:10400000CBFD204604F000F8012800D1E0E720684D
:10401000806840F48040216888602068806820F4CF
:1040200000402843216888604FEA465848EA07481C
:10403000206800680749084040EA080021680860D5
:104040002068006840F0010021680860204603F005
:104050001FFEBDE7FFFF00FC7047704770477047C9
:104060007047704730B502460B4600BF92F83C00DF
:10407000012801D1022030BD012082F83C0000BFA0
:10408000022082F83D001068416810688468234D62
:104090001068A84207D0224D1068A84203D0214DD5
:1040A0001068A84203D121F47001586801431E48EA
:1040B00001401868014310684160184D1068A8421B
:1040C0001BD01068B0F1804F17D0184D1068A8426F
:1040D00013D0174D1068A8420FD0164D1068A84293
:1040E0000BD00F4D1068A84207D0134D1068A8429E
:1040F00003D00C4D1068A84205D124F080049868C4
:10410000044310688460012082F83D0000BF002055
:1041100082F83C0000BF00BFADE70000002C01406A
:1041200000340140005001408FFFFFFD00040040BB
:1041300000080040000C004000400140704710B5EE
:1041400004460CB9012010BD94F83D0028B90020A8
:1041500084F83C00204600F029F8022084F83D0055
:10416000211D206803F074FC012084F8480000BF82
:1041700084F83E0001213F20015540200155412097
:104180000155422001554320015500BF00BF0120C9
:1041900084F844004520015546200155472001552B
:1041A00000BF012084F83D000020CCE738B504466C
:1041B0000D492068884215D100BF0C48806D40F041
:1041C00010000A4988650846806D00F010000090D4
:1041D00000BF00BF002205213620FFF751FD362029
:1041E000FFF73AFD38BD000000100040001002400B
:1041F000014691F83D00012801D0012070470220BE
:1042000081F83D000868C06840F001000B68D86084
:104210001C4B086898421BD00868B0F1804F17D03B
:10422000194B0868984213D0184B086898420FD071
:10423000174B086898420BD0164B0868984207D075
:10424000154B0868984203D0144B0868984210D167
:1042500008688068124B00EA0302062A0FD0B2F504
:10426000803F0CD00868006840F001000B681860BF
:1042700005E00868006840F001000B681860002045
:10428000BCE70000002C0140000400400008004092
:10429000000C00400034014000400140005001404B
:1042A00007000100704770B504462068C6682068A2
:1042B000056905F00200022819D106F00200022863
:1042C00015D1401F2168086101202077206880698E
:1042D00000F0030018B12046FFF7E4FF05E0204698
:1042E00000F0F1F8204600F0EFF80020207705F00C
:1042F0000400042819D106F00400042815D1C04395
:1043000021680861022020772068806900F44070ED
:1043100018B12046FFF7C6FF05E0204600F0D3F8AD
:10432000204600F0D1F80020207705F0080008288A
:1043300019D106F00800082815D1C043216808618A
:10434000042020772068C06900F0030018B12046DF
:10435000FFF7A8FF05E0204600F0B5F8204600F082
:10436000B3F80020207705F01000102819D106F0CE
:104370001000102815D1C04321680861082020775B
:104380002068C06900F4407018B12046FFF78AFF2A
:1043900005E0204600F097F8204600F095F8002050
:1043A000207705F0010048B106F0010030B16FF050
:1043B000010021680861204600F088F805F08000BF
:1043C000802804D005F40050B0F5005F0AD106F053
:1043D0008000802806D16FF40250216808612046D1
:1043E000FFF73BFE05F48070B0F5807F0AD106F040
:1043F0008000802806D16FF4807021680861204613
:10440000FFF72AFE05F04000402809D106F04000E1
:10441000402805D1C04321680861204600F072F8A9
:1044200005F02000202809D106F02000202805D121
:10443000C043216808612046FFF710FE05F4801094
:10444000B0F5801F0BD106F48010B0F5801F06D1A7
:104450006FF48010216808612046FFF701FE05F423
:104460000010B0F5001F0BD106F40010B0F5001FCE
:1044700006D16FF40010216808612046FFF7EFFDB8
:1044800005F48000B0F5800F0BD106F48000B0F584
:10449000800F06D16FF48000216808612046FFF785
:1044A000E0FD05F40000B0F5000F0BD106F40000AC
:1044B000B0F5000F06D16FF40000216808612046B6
:1044C000FFF73CFE70BD70477047000010B5044612
:1044D00009492068884201D1FFF718FB0749206885
:1044E000884208D1064802684068521C40F100002A
:1044F00003490A60486010BD0008004000100040F9
:10450000000000207047014600BF91F88400012898
:1045100001D102207047012081F8840000BF2420CF
:10452000C1F88800086802680868006820F0010087
:104530000B68186022F0005200204866086802608C
:104540002020C1F8880000BF002081F8840000BF4F
:1045500000BFDFE77047704770B504460D4600BFE7
:1045600094F88400012801D1022070BD012084F854
:10457000840000BF2420C4F88800206806682068F2
:10458000006820F00100216808602068806820F041
:104590006060284321688860204603F0D1FA2068D3
:1045A00006602020C4F8880000BF002084F8840042
:1045B00000BF00BFD9E770B504460D4600BF94F8B0
:1045C0008400012801D1022070BD012084F88400FC
:1045D00000BF2420C4F888002068066820680068AE
:1045E00020F00100216808602068806820F06040A9
:1045F000284321688860204603F0A2FA20680660FC
:104600002020C4F8880000BF002084F8840000BF88
:1046100000BFD9E77047704770B50446D4F888509A
:10462000D4F88C602068806800F08000802823D156
:10463000212D21D100BF00BF2168083151E8001FA2
:1046400021F080002168083141E80002002AF3D1FE
:1046500000BFE06F68B1E06FFEF750FD48B1E06F5A
:10466000FEF7D1FD202804D11020C4F890000320CB
:1046700070BD204603F0A8FC2068806800F0400070
:10468000402826D1222E24D100BF00BF2168083146
:1046900051E8001F21F040002168083141E8000284
:1046A000002AF3D100BFD4F8800078B1D4F880009C
:1046B000FEF724FD50B1D4F88000FEF7A4FD2028B9
:1046C00004D11020C4F890000320D1E7204603F065
:1046D0002DFC0020CCE770472DE9F0470446206808
:1046E000C569206806682068876840F60F0005EAFB
:1046F0000009B9F1000F0FD105F0200060B106F0FC
:10470000200010B907F0805030B1606F10B1204622
:10471000616F8847BDE8F087B9F1000F7ED0DF48B0
:10472000384018B9DE4830400028F7D005F00100C5
:1047300058B106F4807040B1012021680862D4F8B5
:10474000900040F00100C4F8900005F0020058B15C
:1047500007F0010040B1022021680862D4F89000FF
:1047600040F00400C4F8900005F0040058B107F0D0
:10477000010040B1042021680862D4F8900040F0A4
:104780000200C4F8900005F0080070B106F02000A7
:1047900010B9C248384040B1082021680862D4F8F6
:1047A000900040F00800C4F8900005F4006060B18B
:1047B00006F0806048B14FF4006021680862D4F8C8
:1047C000900040F02000C4F89000D4F89000002839
:1047D00052D005F0200050B106F0200010B907F0CB
:1047E000805020B1606F10B12046616F8847D4F8C7
:1047F00090A02068806800F04000402802D00AF0B5
:10480000280070B3204603F091FB2068806800F018
:104810004000402826D100BF00BF00E02DE0216805
:10482000083151E8001F21F040002168083141E8BB
:104830000002002AF1D100BFD4F8800068B1994885
:10484000D4F880108863D4F88000FEF792FC98B109
:10485000D4F88000816B88470EE02046FFF73BFFCD
:104860000AE003E02046FFF736FF05E02046FFF7A9
:1048700032FF0020C4F890004CE7E06E012865D1BB
:1048800005F01000002861D006F010000028FAD0D2
:104890001020216808622068806800F040004028ED
:1048A0007AD1D4F88000006840681FFA80F8B8F127
:1048B000000F5CD0B4F85C00404558DDA4F85E8081
:1048C000D4F880000068006800F02000E8BB00BF5A
:1048D00000BF216851E8001F21F48070226842E87F
:1048E00000010029F5D100BF00BF00BF21680831D9
:1048F00051E8001F21F001002168083141E8000261
:10490000002AF3D100BF00BF00BF2168083151E881
:10491000001F21F040002168083141E80002002A10
:10492000F3D100BF2020C4F88C000020E06600BF57
:1049300000BF216851E8001F21F01000226842E802
:1049400000010029F5D100BF01E004E068E0D4F8DF
:104950008000FEF7D3FB02202067B4F85C00B4F8B7
:104960005E20801A81B22046FFF7F4FD12E0B4F811
:104970005C0040450ED1D4F880000068006800F06B
:104980002000202806D102202067B4F85C102046C1
:10499000FFF7E0FDBEE6FFE734F85C0F6188401AE0
:1049A0001FFA80F860885C3CC8B3B8F1000F36D0BD
:1049B00000BF00BF216851E8001F21F490702268F9
:1049C00042E800010029F5D100BF00BF00BF216807
:1049D000083151E8001F314AD24301EA0200216840
:1049E000083141E80002002AF1D100BF2020C4F8BC
:1049F0008C000020E066606700BF00BF216851E8BE
:104A0000001F21F01000226842E800010029F5D1C2
:104A100000BF0220206741462046FFF79BFD79E654
:104A200005F4801050B107F4800038B14FF48010C5
:104A3000216808622046FFF7EEFD6BE605F0800076
:104A400058B106F0800010B907F4000028B1A06F3B
:104A500010B12046A16F88475CE605F0400030B1F8
:104A600006F0400018B1204603F096FA52E605F42D
:104A7000000030B106F0804018B12046FFF7CAFDB3
:104A800048E605F0807030B106F0004018B12046CD
:104A9000FFF761FD3EE600BF3CE6000001000010AC
:104AA000200100047B7D000810B586B00446142167
:104AB00001A8FBF7A5FE4C49206888427ED14FF43F
:104AC00040104A49096821EA104182B21143474A1D
:104AD000883AC2F8881000BF00BF1046806D40F4CD
:104AE0008020114688650846806D00F48020009083
:104AF00000BF00BF00BF0846C06C40F01000C86493
:104B00000846C06C00F01000009000BF00BF00BF5E
:104B10000846C06C40F00200C8640846C06C00F053
:104B20000200009000BF00BF4FF40040019002203F
:104B300002900020039004900720059001A92C48C2
:104B4000FEF7A0FE4FF48840019002200290002062
:104B5000039004900720059001A92648FEF792FED5
:104B60002548264908601C204860002123488160B0
:104B7000C16080210161002141618161C1610162E7
:104B8000FEF7C4FB08B1FDF7A0FE00BF1B48C4F848
:104B90008000846200BF18481430194908601D2045
:104BA00048601021164881600021C16080210161A8
:104BB000002141618161C161016200E011E0FEF705
:104BC000A5FB08B1FDF781FE00BF0D48E0678462D8
:104BD00000BF002209212720FFF752F82720FFF706
:104BE0003BF806B010BD00000048004088100240AD
:104BF000001000480004004808000240F0020020B5
:104C00005003002070B504460D461646D4F88C00BB
:104C1000202821D105B10EB9012070BD0020E06629
:104C20000E492068884211D02068406800F40000D6
:104C300060B100BF00BF216851E8001F41F08060F3
:104C4000226842E800010029F5D100BF324629461A
:104C5000204603F0BDFBE0E70220DEE700800040D5
:104C60007047704770B504460E461546D4F8880064
:104C700020283FD106B10DB9012070BD44F8506F16
:104C8000A580E580002020642120A063E06A503CDC
:104C9000E0B11948E16FC8621848E16F086318482D
:104CA000E16F48630020E16F8863236803F1280205
:104CB0002B46216DE06FFEF791FB38B11020C4F850
:104CC00090002020C4F888000120D6E74020216809
:104CD000086200BF00BF2168083151E8001F41F0A1
:104CE00080002168083141E80002002AF3D100BFAA
:104CF0000020C2E70220C0E7C77E00081D7F000831
:104D00008F7D00087047704700BFFEE708B5054972
:104D1000C96C0143034AD1641146C96C014000913A
:104D200000BF08BD0010024008B50549C96C014329
:104D3000034AD1641146C96C0140009100BF08BD0F
:104D40000010024008B50549896D0143034A916589
:104D50001146896D0140009100BF08BD001002405E
:104D600008B50549096E0143034A11661146096EEB
:104D70000140009100BF08BD0010024001490860D9
:104D80007047000014040140024909688143014A48
:104D90001160704704040140024909688143014AD7
:104DA0001160704724040140024909688143014AA7
:104DB0001160704700040140024909688143014ABB
:104DC0001160704720040140024909680143014A0B
:104DD0001160704704040140024909680143014A17
:104DE0001160704724040140024909680143014AE7
:104DF000116070470C040140024909680143014AEF
:104E0000116070472C040140024909680143014ABE
:104E10001160704700040140024909680143014ADA
:104E20001160704720040140024909680143014AAA
:104E30001160704708040140024909680143014AB2
:104E4000116070472804014070B504460025207A9F
:104E500000287BD0206800284BD0607A20B1012840
:104E600009D0022815D10DE02068FFF78DFF2068DA
:104E7000FFF7CAFF0FE02068FFF796FF2068FFF7F3
:104E8000A3FF08E02068FFF7BFFF2068FFF79CFF43
:104E900001E0012500BF00BFA07A50B3A07A01282D
:104EA00004D002280DD003281FD117E02068414903
:104EB000096881433F4A116000BF2068FFF7B4FFD3
:104EC00016E020683B49091F09688143394A121FCF
:104ED000116000BF2068FFF787FF09E02068FFF737
:104EE000A3FF2068FFF780FF02E045F0020500BF46
:104EF00000BF606800285BD0607A20B1012809D02B
:104F0000022815D10DE06068FFF746FF6068FFF7E3
:104F100083FF10E06068FFF74FFF6068FFF75CFFFA
:104F200009E06068FFF778FF6068FFF755FF02E06F
:104F300045F0040500BF00BFA07A60B3A07A012845
:104F400005D0022810D0032822D11AE024E060689E
:104F50001849203109688143164A2032116000BF88
:104F60006068FFF769FF16E0606812491C31096844
:104F70008143104A1C32116000BF6068FFF73CFF9C
:104F800009E06068FFF758FF6068FFF735FF02E04F
:104F900045F0050500BF0BE02068FFF705FF20681E
:104FA000FFF7F2FE6068FFF707FF6068FFF7F4FEA7
:104FB000284670BD0C0401400146044800680840C2
:104FC000884201D1012070470020FCE71404014011
:104FD000F0B502460B46186890FAA0F0B0FA80F4DB
:104FE00087E00120A0401D6805EA000100297FD06C
:104FF0005868012802D0586802281DD19868956821
:1050000091FAA1F6B6FA86F677000326BE40B543BC
:1050100091FAA1F6B6FA86F6760000FA06F635435E
:10502000956000BFDD6818685668864300FB05F789
:105030003E43566000BF00BF1869D56891FAA1F6DB
:10504000B6FA86F677000326BE40B54391FAA1F67C
:10505000B6FA86F6760000FA06F63543D56000BF4C
:10506000586802282DD1FF2914D85869156A91FA79
:10507000A1F6B6FA86F6B7000F26BE40B54391FA00
:10508000A1F6B6FA86F6B60000FA06F635431562C2
:1050900000BF16E05869556A0E0A96FAA6F6B6FAE7
:1050A00086F6B7000F26BE40B5430E0A96FAA6F65E
:1050B000B6FA86F6B60000FA06F63543556200BF2A
:1050C00000BF5868156891FAA1F6B6FA86F677001F
:1050D0000326BE40B54391FAA1F6B6FA86F67600ED
:1050E00000FA06F63543156000BF00E000E000BF9F
:1050F000641C1868E04000287FF473AFF0BD0246DE
:1051000010690840884201D1012070470020FCE767
:105110008162704781627047816270478161704728
:105120008161704730B5036891FAA1F4B4FA84F450
:1051300065000324AC40A34391FAA1F4B4FA84F4CB
:10514000640002FA04F42343036030BD30B5C36841
:1051500091FAA1F4B4FA84F465000324AC40A343AB
:1051600091FAA1F4B4FA84F4640002FA04F423433B
:10517000C36030BD0349896821F0F0010143014A51
:10518000916070470010024030B50246012300BF15
:105190001068C0F38010A0BBD1E900042043CC68A4
:1051A00020430C6920434C6920438C692043CC691F
:1051B00020430C6A204314684FF6BF75AC4320436C
:1051C00010604C69886840EA1440546840F60475E1
:1051D000AC43204350608868B0F5006F07D21803D5
:1051E000546824F480540443546000BF00BF086A2C
:1051F000B0F5005F04D1486A84B2146100BF00BFFB
:105200000023D06920F40060D061184630BD000052
:1052100010B50B4A01F0030352F8232022EA114291
:105220000B0C93FAA3F3B3FA83F303F01F0300FA12
:1052300003F31A43024B01F0030443F8242010BD8A
:105240000800014001490860704700007C0100200F
:1052500010B503460A460021147B2146906801439D
:1052600021F48060546840EA040121F4006014686D
:1052700040EA040121F48050D48940EA040121F479
:105280000050146940EA040121F48040D46A40EAE5
:10529000040121F47020546940EA040121F0805097
:1052A000946940EA04011048834205D00F488342C4
:1052B00002D00F48834213D121F47000546A40EAAF
:1052C000040121F08070D46940EA040121F00070EB
:1052D000146A40EA040121F00050946A40EA040193
:1052E0005964002010BD0000002C01400034014032
:1052F00000500140026A8A4302627047026A0A4310
:10530000026270476FF0010101617047016821F08E
:10531000800101607047816821F0800181607047E1
:10532000016841F0800101607047416C41F4004127
:1053300041647047016841F00101016070470168F4
:1053400041F0010101607047C16841F00101C16095
:10535000704701460A6802F0600010B90A6802F05E
:1053600010007047F0B503461446012901D100250D
:1053700025E0042901D1012521E0102901D10225D0
:105380001DE0402901D1032519E0B1F5807F01D14D
:10539000042514E0B1F5806F01D105250FE0B1F5CA
:1053A000805F01D106250AE0B1F5804F01D10725C4
:1053B00005E0B1F5803F01D1082500E00925284628
:1053C000084D2E5C03F1180572191568064E375CFE
:1053D0000326BE40B543260C034F3F5CBE40354319
:1053E0001560F0BD70CE000884CE0008F0B503460D
:1053F0001446012901D1002525E0042901D1012508
:1054000021E0102901D102251DE0402901D1032509
:1054100019E0B1F5807F01D1042514E0B1F5806F6A
:1054200001D105250FE0B1F5805F01D106250AE025
:10543000B1F5804F01D1072505E0B1F5803F01D1DD
:10544000082500E009252846084D2E5C03F11805C3
:1054500072191568064E375CF026BE40B543260C1F
:10546000034F3F5CBE4035431560F0BD70CE000871
:1054700084CE0008F0B503461446012901D1002569
:1054800025E0042901D1012521E0102901D10225BF
:105490001DE0402901D1032519E0B1F5807F01D13C
:1054A000042514E0B1F5806F01D105250FE0B1F5B9
:1054B000805F01D106250AE0B1F5804F01D10725B3
:1054C00005E0B1F5803F01D1082500E00925284617
:1054D000084D2E5C03F1180572191568064E375CED
:1054E000F026BE40B543260C034F3F5CBE4035431B
:1054F0001560F0BDAACE0008BECE000870B5012927
:1055000001D1002425E0042901D1012421E0102942
:1055100001D102241DE0402901D1032419E0B1F595
:10552000807F01D1042414E0B1F5806F01D10524FE
:105530000FE0B1F5805F01D106240AE0B1F5804F9C
:1055400001D1072405E0B1F5803F01D1082400E036
:1055500009242346046A064DEE5C0A25B540AC4397
:10556000034DED5C02FA05F52C43046270BD0000AA
:105570008ECE0008F0B503461446012901D100255E
:1055800025E0042901D1012521E0102901D10225BE
:105590001DE0402901D1032519E0B1F5807F01D13B
:1055A000042514E0B1F5806F01D105250FE0B1F5B8
:1055B000805F01D106250AE0B1F5804F01D10725B2
:1055C00005E0B1F5803F01D1082500E00925284616
:1055D000084D2E5C03F1180572191568064E375CEC
:1055E0000C26BE40B543260C034F3F5CBE403543FE
:1055F0001560F0BD70CE000884CE000810B50246DC
:1056000013683148824211D0B2F1804F0ED02F483A
:1056100082420BD02E48824208D02E48824205D0CA
:105620002D48824202D02D48824204D123F07000DE
:105630004C6840EA0403244882421AD0B2F1804FF9
:1056400017D02248824214D02148824211D02148EA
:1056500082420ED0204882420BD02148824208D09C
:105660002048824205D02048824202D01B48824214
:1056700004D123F44070CC6840EA040313608868C6
:10568000D06200BF0888906200BF0F4882420ED0EF
:10569000114882420BD01248824208D011488242FF
:1056A00005D01148824202D00C48824203D10869D9
:1056B000106300BF00BF00BF506940F0010050619F
:1056C00000BF002010BD0000002C0140000400407D
:1056D00000080040000C0040003401400050014030
:1056E0000040014000440140004801400146086973
:1056F00000F001007047000070B50246012901D199
:10570000002425E0042901D1012421E0102901D140
:1057100002241DE0402901D1032419E0B1F5807F66
:1057200001D1042414E0B1F5806F01D105240FE00C
:10573000B1F5805F01D106240AE0B1F5804F01D1B7
:10574000072405E0B1F5803F01D1082400E00924D9
:105750002346064CE55C02F1180428190468044D40
:10576000EE5C0425B540AC43046070BD70CE00080B
:105770007ACE000870B50246012901D1002425E047
:10578000042901D1012421E0102901D102241DE0C6
:10579000402901D1032419E0B1F5807F01D104240F
:1057A00014E0B1F5806F01D105240FE0B1F5805F01
:1057B00001D106240AE0B1F5804F01D1072405E0AC
:1057C000B1F5803F01D1082400E009242346064CAE
:1057D000E55C02F1180428190468044DEE5C082504
:1057E000B5402C43046070BD70CE00087ACE00082E
:1057F0002DE9F04106460C4615460127B4F5805FB9
:1058000021D007DC012C0CD0102C10D0B4F5807FF7
:105810002BD112E0B4F5803F1BD0B4F5801F24D10A
:105820001DE02946304601F059F907461EE0294699
:10583000304601F0ABF9074618E02946304601F042
:1058400001FA074612E02946304601F053FA0746AE
:105850000CE02946304601F0A3FA074606E0294647
:10586000304601F0E5FA074600E000BF00BF3846C9
:10587000BDE8F0814163704781637047C162704742
:10588000416270478268024B1A400A438260704747
:10589000F8FFFEFF4268024B1A400A43426070471D
:1058A0008FFFFFFD426822F470020A434260704796
:1058B00008B500BF1548806C40F0040013498864A7
:1058C0000846806C00F00400009000BF00BF00BFDD
:1058D0000846806C40F0010088640846806C00F047
:1058E0000100009000BF00BF002209210B20FEF73D
:1058F000C7F90B20FEF7B0F9002209210C20FEF7B2
:10590000BFF90C20FEF7A8F908BD00000010024006
:1059100010B5154A0021154803F078FF14490860B6
:10592000144A0021144803F071FF14490860144A16
:105930000021144803F06AFF13490860134A00214C
:10594000134803F063FF13490860134A002113480A
:1059500003F05CFF12490860124A0021124803F06C
:1059600055FF1249086010BD90CD0008B5770008BA
:1059700008000020B4CD0008D12700080C0000204A
:10598000D8CD00082927000810000020FCCD000811
:10599000556800081400002020CE00086D6800083B
:1059A0001800002044CE0008856800081C00002074
:1059B00030B589B0002006900790089018216846FD
:1059C000FAF71EFF1020FFF7A1F90420FFF79EF958
:1059D0002020FFF79BF90120FFF798F90220FFF73D
:1059E00095F90820FFF792F910214FF09040FFF74A
:1059F0008FFB20214FF09040FFF78AFB40214FF0B2
:105A00009040FFF785FB1021FE48FFF781FB202126
:105A1000FC48FFF77DFB0121FB48FFF779FB0221E2
:105A2000F948FFF775FB4FF48061F848FFF770FB0A
:105A30004FF48051F548FFF76BFB4FF40051F348EA
:105A4000FFF766FB4FF48041F048FFF761FB4FF42E
:105A50008051ED48FFF75CFB4FF40051EA48FFF737
:105A600057FB4FF48071EA48FFF752FB4FF4007187
:105A7000E748FFF74DFB4FF48061E548FFF748FB2F
:105A80004FF40061E248FFF743FB4FF40051E04858
:105A9000FFF73EFB0221DE48FFF73AFB0421DC481A
:105AA000FFF736FB1021DA48FFF732FB2021D848F8
:105AB000FFF72EFB4021D648FFF72AFBD5490420EB
:105AC000FFF7A6FBD4490420FFF7A2FBD34904202B
:105AD000FFF79EFBD049891C0220FFF799FBD049B4
